:04000000FEEFFFF020
:1025000000C425002A25002E27000000000000003E
:10251000202700122700F62600000000000000001F
:09252000000000000000000000B2
:10252A00B2A09AEF12F09CEF12F095EF12F0000EA3
:10253A00226E0201B2A7A4EF12F0A6EF12F0B4EFD6
:10254A0012F0228202D8B4EF12F00500FA6E2F5070
:10255A00FD6E3050FE6E3150FF6EFA5012000201CD
:10256A00B2A3BAEF12F0BCEF12F0CAEF12F0228453
:10257A0002D8CAEF12F00500FA6E2C50FD6E2D50EB
:10258A00FE6E2E50FF6EFA5012002250D8B4D0EFD1
:10259A0012F0D2EF12F0DFEF12F002D8DFEF12F0F2
:1025AA000500FA6E2950FD6E2A50FE6E2B50FF6E02
:1025BA00FA5012000201A1511200A290000E3E6EC2
:1025CA00000E3F6E000E406E74EC13F0A292000EE5
:1025DA003E6E000E3F6E000E406E6DEC13F0A2943C
:1025EA00000E3E6E000E3F6E000E406E82EC13F03F
:1025FA00A296000E3E6E000E3F6E000E406E66EC16
:10260A0013F00201AB8FAB9DAB8BAB89F00EAB170E
:10261A00000EAF6F190EAE6FAC8F3A0E3E6E270EDC
:10262A003F6E000E406E89EC13F0380E3E6E270E98
:10263A003F6E000E406E7BEC13F03C0E3E6E270E92
:10264A003F6E000E406E90EC13F0000E226E1200E8
:10265A00620E0001AD6F700EAE6F000EAF6F000E0E
:10266A00B36F020EB16F000EB26F000EB06F000EA4
:10267A00AC6F12005FEC13F095EC12F0416E415012
:10268A0097EC13F041EF13F0FEEFFFF0C88ECB9EEC
:10269A000401109F288F170E0201726F200E296FF6
:1026AA00120001EE01F1280EEE6AE806FDE10001D2
:1026BA003FEF13F02DEC13F04BEC13F0E2EC12F0B9
:1026CA0012003EC532F53FC533F540C534F5120058
:1026DA003EC538F53FC539F540C53AF512003EC545
:1026EA003BF53FC53CF540C53DF512003EC52CF50E
:1026FA003FC52DF540C52EF512003EC535F53FC53F
:10270A0036F540C537F512003EC52FF53FC530F501
:10271A0040C531F512003EC529F53FC52AF540C529
:10272A002BF512003E6E6100F8F4A3F212001200BB
:04273A001200120077
:020000040001F9
:04FFFC0056EF13F0B9
:020000040020DA
:10000000FFFFFFFFFFFFFFFFFFFFFFFFFFFFFFFF00
:10001000FFFFFFFFFFFFFFFFFFFFFFFFFFFFFFFFF0
:10002000FFFFFFFFFFFFFFFFFFFFFFFFFFFFFFFFE0
:10003000FFFFFFFFFFFFFFFFFFFFFFFFFFFFFFFFD0
:020000040030CA
:08000000FFFFF7FF9FFFFFFF68
:01000900FFF7
:00000001FF
